{
  "_format": "hh-sol-artifact-1",
  "contractName": "IdentityReputation",
  "sourceName": "contracts/IdentityReputation.sol",
  "abi": [
    {
      "inputs": [],
      "stateMutability": "nonpayable",
      "type": "constructor"
    },
    {
      "anonymous": false,
      "inputs": [
        {
          "indexed": true,
          "internalType": "uint256",
          "name": "endorsementId",
          "type": "uint256"
        },
        {
          "indexed": true,
          "internalType": "address",
          "name": "endorser",
          "type": "address"
        },
        {
          "indexed": true,
          "internalType": "address",
          "name": "endorsed",
          "type": "address"
        },
        {
          "indexed": false,
          "internalType": "uint256",
          "name": "rating",
          "type": "uint256"
        }
      ],
      "name": "EndorsementMinted",
      "type": "event"
    },
    {
      "anonymous": false,
      "inputs": [
        {
          "indexed": true,
          "internalType": "address",
          "name": "user",
          "type": "address"
        },
        {
          "indexed": false,
          "internalType": "string",
          "name": "ipfsHash",
          "type": "string"
        },
        {
          "indexed": false,
          "internalType": "uint256",
          "name": "timestamp",
          "type": "uint256"
        }
      ],
      "name": "IdentityCreated",
      "type": "event"
    },
    {
      "anonymous": false,
      "inputs": [
        {
          "indexed": true,
          "internalType": "address",
          "name": "user",
          "type": "address"
        },
        {
          "indexed": false,
          "internalType": "string",
          "name": "newIpfsHash",
          "type": "string"
        }
      ],
      "name": "IdentityUpdated",
      "type": "event"
    },
    {
      "anonymous": false,
      "inputs": [
        {
          "indexed": true,
          "internalType": "address",
          "name": "issuer",
          "type": "address"
        },
        {
          "indexed": false,
          "internalType": "enum IdentityReputation.IssuerRole",
          "name": "role",
          "type": "uint8"
        }
      ],
      "name": "IssuerVerified",
      "type": "event"
    },
    {
      "anonymous": false,
      "inputs": [
        {
          "indexed": true,
          "internalType": "address",
          "name": "user",
          "type": "address"
        },
        {
          "indexed": true,
          "internalType": "address",
          "name": "endorser",
          "type": "address"
        },
        {
          "indexed": false,
          "internalType": "uint256",
          "name": "points",
          "type": "uint256"
        },
        {
          "indexed": false,
          "internalType": "uint256",
          "name": "newReputation",
          "type": "uint256"
        }
      ],
      "name": "ReputationUpdated",
      "type": "event"
    },
    {
      "inputs": [],
      "name": "MIN_WALLET_AGE",
      "outputs": [
        {
          "internalType": "uint256",
          "name": "",
          "type": "uint256"
        }
      ],
      "stateMutability": "view",
      "type": "function"
    },
    {
      "inputs": [
        {
          "internalType": "string",
          "name": "ipfsHash",
          "type": "string"
        }
      ],
      "name": "createIdentity",
      "outputs": [],
      "stateMutability": "nonpayable",
      "type": "function"
    },
    {
      "inputs": [],
      "name": "endorsementCounter",
      "outputs": [
        {
          "internalType": "uint256",
          "name": "",
          "type": "uint256"
        }
      ],
      "stateMutability": "view",
      "type": "function"
    },
    {
      "inputs": [
        {
          "internalType": "uint256",
          "name": "",
          "type": "uint256"
        }
      ],
      "name": "endorsements",
      "outputs": [
        {
          "internalType": "address",
          "name": "endorser",
          "type": "address"
        },
        {
          "internalType": "address",
          "name": "endorsed",
          "type": "address"
        },
        {
          "internalType": "uint256",
          "name": "rating",
          "type": "uint256"
        },
        {
          "internalType": "uint256",
          "name": "points",
          "type": "uint256"
        },
        {
          "internalType": "uint256",
          "name": "timestamp",
          "type": "uint256"
        },
        {
          "internalType": "string",
          "name": "message",
          "type": "string"
        },
        {
          "internalType": "bool",
          "name": "exists",
          "type": "bool"
        }
      ],
      "stateMutability": "view",
      "type": "function"
    },
    {
      "inputs": [
        {
          "internalType": "uint256",
          "name": "endorsementId",
          "type": "uint256"
        }
      ],
      "name": "getEndorsement",
      "outputs": [
        {
          "internalType": "address",
          "name": "endorser",
          "type": "address"
        },
        {
          "internalType": "address",
          "name": "endorsed",
          "type": "address"
        },
        {
          "internalType": "uint256",
          "name": "rating",
          "type": "uint256"
        },
        {
          "internalType": "uint256",
          "name": "points",
          "type": "uint256"
        },
        {
          "internalType": "uint256",
          "name": "timestamp",
          "type": "uint256"
        },
        {
          "internalType": "string",
          "name": "message",
          "type": "string"
        }
      ],
      "stateMutability": "view",
      "type": "function"
    },
    {
      "inputs": [
        {
          "internalType": "address",
          "name": "user",
          "type": "address"
        }
      ],
      "name": "getIdentity",
      "outputs": [
        {
          "internalType": "string",
          "name": "ipfsHash",
          "type": "string"
        },
        {
          "internalType": "uint256",
          "name": "reputation",
          "type": "uint256"
        },
        {
          "internalType": "uint256",
          "name": "createdAt",
          "type": "uint256"
        },
        {
          "internalType": "uint256",
          "name": "lastActivity",
          "type": "uint256"
        },
        {
          "internalType": "uint256",
          "name": "endorsementCount",
          "type": "uint256"
        },
        {
          "internalType": "bool",
          "name": "exists",
          "type": "bool"
        }
      ],
      "stateMutability": "view",
      "type": "function"
    },
    {
      "inputs": [
        {
          "internalType": "address",
          "name": "user",
          "type": "address"
        }
      ],
      "name": "getReputationBreakdown",
      "outputs": [
        {
          "internalType": "uint256",
          "name": "totalReputation",
          "type": "uint256"
        },
        {
          "internalType": "uint256",
          "name": "endorsementCount",
          "type": "uint256"
        },
        {
          "internalType": "uint256",
          "name": "averageRating",
          "type": "uint256"
        },
        {
          "internalType": "uint256",
          "name": "daysSinceCreation",
          "type": "uint256"
        },
        {
          "internalType": "uint256",
          "name": "daysSinceActivity",
          "type": "uint256"
        }
      ],
      "stateMutability": "view",
      "type": "function"
    },
    {
      "inputs": [],
      "name": "getStats",
      "outputs": [
        {
          "internalType": "uint256",
          "name": "total",
          "type": "uint256"
        },
        {
          "internalType": "uint256",
          "name": "totalEndorsements",
          "type": "uint256"
        },
        {
          "internalType": "uint256",
          "name": "verifiedIssuerCount",
          "type": "uint256"
        }
      ],
      "stateMutability": "view",
      "type": "function"
    },
    {
      "inputs": [
        {
          "internalType": "address",
          "name": "user",
          "type": "address"
        }
      ],
      "name": "getSybilResistanceScore",
      "outputs": [
        {
          "internalType": "bool",
          "name": "hasIdentity",
          "type": "bool"
        },
        {
          "internalType": "bool",
          "name": "meetsWalletAge",
          "type": "bool"
        },
        {
          "internalType": "bool",
          "name": "hasEndorsements",
          "type": "bool"
        },
        {
          "internalType": "uint256",
          "name": "score",
          "type": "uint256"
        }
      ],
      "stateMutability": "view",
      "type": "function"
    },
    {
      "inputs": [
        {
          "internalType": "address",
          "name": "user",
          "type": "address"
        }
      ],
      "name": "getUserEndorsements",
      "outputs": [
        {
          "internalType": "uint256[]",
          "name": "",
          "type": "uint256[]"
        }
      ],
      "stateMutability": "view",
      "type": "function"
    },
    {
      "inputs": [
        {
          "internalType": "address",
          "name": "user",
          "type": "address"
        }
      ],
      "name": "hasIdentity",
      "outputs": [
        {
          "internalType": "bool",
          "name": "",
          "type": "bool"
        }
      ],
      "stateMutability": "view",
      "type": "function"
    },
    {
      "inputs": [
        {
          "internalType": "address",
          "name": "",
          "type": "address"
        }
      ],
      "name": "identities",
      "outputs": [
        {
          "internalType": "string",
          "name": "ipfsHash",
          "type": "string"
        },
        {
          "internalType": "uint256",
          "name": "reputation",
          "type": "uint256"
        },
        {
          "internalType": "uint256",
          "name": "createdAt",
          "type": "uint256"
        },
        {
          "internalType": "uint256",
          "name": "lastActivity",
          "type": "uint256"
        },
        {
          "internalType": "uint256",
          "name": "endorsementCount",
          "type": "uint256"
        },
        {
          "internalType": "bool",
          "name": "exists",
          "type": "bool"
        }
      ],
      "stateMutability": "view",
      "type": "function"
    },
    {
      "inputs": [
        {
          "internalType": "address",
          "name": "issuer",
          "type": "address"
        }
      ],
      "name": "isVerifiedIssuer",
      "outputs": [
        {
          "internalType": "bool",
          "name": "",
          "type": "bool"
        },
        {
          "internalType": "enum IdentityReputation.IssuerRole",
          "name": "",
          "type": "uint8"
        }
      ],
      "stateMutability": "view",
      "type": "function"
    },
    {
      "inputs": [
        {
          "internalType": "address",
          "name": "",
          "type": "address"
        }
      ],
      "name": "issuerRoles",
      "outputs": [
        {
          "internalType": "enum IdentityReputation.IssuerRole",
          "name": "",
          "type": "uint8"
        }
      ],
      "stateMutability": "view",
      "type": "function"
    },
    {
      "inputs": [
        {
          "internalType": "address",
          "name": "user",
          "type": "address"
        },
        {
          "internalType": "uint256",
          "name": "points",
          "type": "uint256"
        },
        {
          "internalType": "uint256",
          "name": "rating",
          "type": "uint256"
        },
        {
          "internalType": "string",
          "name": "messageHash",
          "type": "string"
        }
      ],
      "name": "mintEndorsement",
      "outputs": [
        {
          "internalType": "uint256",
          "name": "",
          "type": "uint256"
        }
      ],
      "stateMutability": "nonpayable",
      "type": "function"
    },
    {
      "inputs": [],
      "name": "owner",
      "outputs": [
        {
          "internalType": "address",
          "name": "",
          "type": "address"
        }
      ],
      "stateMutability": "view",
      "type": "function"
    },
    {
      "inputs": [
        {
          "internalType": "address",
          "name": "issuer",
          "type": "address"
        }
      ],
      "name": "revokeIssuer",
      "outputs": [],
      "stateMutability": "nonpayable",
      "type": "function"
    },
    {
      "inputs": [],
      "name": "totalIdentities",
      "outputs": [
        {
          "internalType": "uint256",
          "name": "",
          "type": "uint256"
        }
      ],
      "stateMutability": "view",
      "type": "function"
    },
    {
      "inputs": [
        {
          "internalType": "string",
          "name": "newIpfsHash",
          "type": "string"
        }
      ],
      "name": "updateIdentity",
      "outputs": [],
      "stateMutability": "nonpayable",
      "type": "function"
    },
    {
      "inputs": [
        {
          "internalType": "address",
          "name": "user",
          "type": "address"
        },
        {
          "internalType": "uint256",
          "name": "points",
          "type": "uint256"
        }
      ],
      "name": "updateReputation",
      "outputs": [],
      "stateMutability": "nonpayable",
      "type": "function"
    },
    {
      "inputs": [
        {
          "internalType": "address",
          "name": "",
          "type": "address"
        },
        {
          "internalType": "uint256",
          "name": "",
          "type": "uint256"
        }
      ],
      "name": "userEndorsements",
      "outputs": [
        {
          "internalType": "uint256",
          "name": "",
          "type": "uint256"
        }
      ],
      "stateMutability": "view",
      "type": "function"
    },
    {
      "inputs": [
        {
          "internalType": "address",
          "name": "",
          "type": "address"
        }
      ],
      "name": "verifiedIssuers",
      "outputs": [
        {
          "internalType": "bool",
          "name": "",
          "type": "bool"
        }
      ],
      "stateMutability": "view",
      "type": "function"
    },
    {
      "inputs": [
        {
          "internalType": "address",
          "name": "issuer",
          "type": "address"
        },
        {
          "internalType": "enum IdentityReputation.IssuerRole",
          "name": "role",
          "type": "uint8"
        }
      ],
      "name": "verifyIssuer",
      "outputs": [],
      "stateMutability": "nonpayable",
      "type": "function"
    }
  ],
  "bytecode": "0x608060405234801561001057600080fd5b5060078054336001600160a01b031990911681179091556000908152600260209081526040808320805460ff199081166001908117909255925290912080549091166003179055611b6e806100666000396000f3fe608060405234801561001057600080fd5b506004361061014c5760003560e01c80637aee1e13116100c3578063ce21e1cb1161007c578063ce21e1cb146103ab578063d2c31c75146103f6578063e0631aa814610409578063f5c5987b1461041c578063f5c91a0814610425578063f653b81e1461043857600080fd5b80637aee1e13146102e05780638da5cb5b146102f35780638efb10401461031e57806396b43d01146103435780639b7ebc5b1461034d578063c59d48471461038857600080fd5b80633187ff7d116101155780633187ff7d1461022057806334d9aee2146102295780633d422f2e1461024f5780633ed46f7a1461028a57806342ade784146102ad578063787a7a60146102c057600080fd5b806262967914610151578063237f1a21146101665780632d58b3a4146101aa5780632fea7b81146101cb57806330b60ef6146101f0575b600080fd5b61016461015f366004611539565b61044b565b005b610195610174366004611539565b6001600160a01b031660009081526020819052604090206005015460ff1690565b60405190151581526020015b60405180910390f35b6101bd6101b836600461155b565b6104f3565b6040519081526020016101a1565b6101de6101d9366004611539565b610524565b6040516101a1969594939291906115cb565b6102136101fe366004611539565b60016020526000908152604090205460ff1681565b6040516101a19190611641565b6101bd60055481565b61023c610237366004611655565b610669565b6040516101a1979695949392919061166e565b61026261025d366004611539565b610740565b60408051941515855292151560208501529015159183019190915260608201526080016101a1565b610195610298366004611539565b60026020526000908152604090205460ff1681565b6101646102bb366004611764565b6107f0565b6102d36102ce366004611539565b6109bf565b6040516101a191906117a1565b6101646102ee366004611764565b610a2b565b600754610306906001600160a01b031681565b6040516001600160a01b0390911681526020016101a1565b61033161032c366004611655565b610b0a565b6040516101a1969594939291906117e5565b6101bd62278d0081565b61036061035b366004611539565b610c9a565b604080519586526020860194909452928401919091526060830152608082015260a0016101a1565b6006546005546000604080519384526020840192909252908201526060016101a1565b6103e86103b9366004611539565b6001600160a01b031660009081526002602090815260408083205460019092529091205460ff91821692911690565b6040516101a192919061182e565b6101bd610404366004611844565b610f1d565b6101646104173660046118a5565b6112f2565b6101bd60065481565b61016461043336600461155b565b61143c565b6101de610446366004611539565b61145d565b6007546001600160a01b0316331461049b5760405162461bcd60e51b815260206004820152600e60248201526d139bdd08185d5d1a1bdc9a5e995960921b60448201526064015b60405180910390fd5b6001600160a01b038116600081815260026020526040808220805460ff19169055517fc74884c594cadc89a53c6d32e6643490933c45a9599d660928538740c38bbd24916104e891611641565b60405180910390a250565b6004602052816000526040600020818154811061050f57600080fd5b90600052602060002001600091509150505481565b6060600080600080600080600080896001600160a01b03166001600160a01b031681526020019081526020016000206040518060c001604052908160008201805461056e906118e0565b80601f016020809104026020016040519081016040528092919081815260200182805461059a906118e0565b80156105e75780601f106105bc576101008083540402835291602001916105e7565b820191906000526020600020905b8154815290600101906020018083116105ca57829003601f168201915b50505050508152602001600182015481526020016002820154815260200160038201548152602001600482015481526020016005820160009054906101000a900460ff1615151515815250509050806000015181602001518260400151836060015184608001518560a001519650965096509650965096505091939550919395565b60036020819052600091825260409091208054600182015460028301549383015460048401546005850180546001600160a01b0395861697959094169592939192916106b4906118e0565b80601f01602080910402602001604051908101604052809291908181526020018280546106e0906118e0565b801561072d5780601f106107025761010080835404028352916020019161072d565b820191906000526020600020905b81548152906001019060200180831161071057829003601f168201915b5050506006909301549192505060ff1687565b6001600160a01b0381166000908152602081905260408120600581015460029091015482918291829160ff1690829062278d009061077e9042611930565b6001600160a01b038916600090815260208190526040812060040154929091101592509015159083156107b9576107b6602182611943565b90505b82156107cd576107ca602182611943565b90505b81156107e1576107de602282611943565b90505b92989197509550909350915050565b3360009081526020819052604090206005015460ff16156108535760405162461bcd60e51b815260206004820152601760248201527f4964656e7469747920616c7265616479206578697374730000000000000000006044820152606401610492565b60008151116108a05760405162461bcd60e51b81526020600482015260196024820152784950465320686173682063616e6e6f7420626520656d70747960381b6044820152606401610492565b6040805160c0810182528281526000602080830182905242838501819052606084015260808301829052600160a084015233825281905291909120815181906108e990826119a4565b506020820151600182015560408201516002820155606082015160038201556080820151600482015560a0909101516005909101805460ff191691151591909117905560003360009081526001602052604090205460ff16600381111561095257610952611609565b0361096f57336000908152600160205260409020805460ff191690555b6006805490600061097f83611a64565b9190505550336001600160a01b03167f06bd209378e3df7a1561fcbdedeedd0d917023f6c33733a7320a02f1c84a62e782426040516104e8929190611a7d565b6001600160a01b038116600090815260046020908152604091829020805483518184028101840190945280845260609392830182828015610a1f57602002820191906000526020600020905b815481526020019060010190808311610a0b575b50505050509050919050565b3360009081526020819052604090206005015460ff16610a5d5760405162461bcd60e51b815260040161049290611a9f565b6000815111610aaa5760405162461bcd60e51b81526020600482015260196024820152784950465320686173682063616e6e6f7420626520656d70747960381b6044820152606401610492565b336000908152602081905260409020610ac382826119a4565b50336000818152602081905260409081902042600390910155517f8b59ec232bae8e23fe031d1cacdaae5d1c57fb36ad6ca568850b6efbfb0d76b0906104e8908490611ad6565b6000818152600360208181526040808420815160e08101835281546001600160a01b0390811682526001830154169381019390935260028101549183019190915291820154606082810191909152600483015460808301526005830180548594859485948594909385939160a0840191610b83906118e0565b80601f0160208091040260200160405190810160405280929190818152602001828054610baf906118e0565b8015610bfc5780601f10610bd157610100808354040283529160200191610bfc565b820191906000526020600020905b815481529060010190602001808311610bdf57829003601f168201915b50505091835250506006919091015460ff16151560209091015260c0810151909150610c6a5760405162461bcd60e51b815260206004820152601a60248201527f456e646f7273656d656e7420646f6573206e6f742065786973740000000000006044820152606401610492565b8051602082015160408301516060840151608085015160a090950151939c929b5090995097509195509350915050565b6001600160a01b038116600090815260208190526040812060050154819081908190819060ff16610cdd5760405162461bcd60e51b815260040161049290611a9f565b6001600160a01b038616600090815260208190526040808220815160c08101909252805482908290610d0e906118e0565b80601f0160208091040260200160405190810160405280929190818152602001828054610d3a906118e0565b8015610d875780601f10610d5c57610100808354040283529160200191610d87565b820191906000526020600020905b815481529060010190602001808311610d6a57829003601f168201915b50505091835250506001820154602080830191909152600283015460408084019190915260038401546060840152600480850154608085015260059094015460ff16151560a0909301929092526001600160a01b038b16600090815292815281832080548351818402810184019094528084529495509293849391830182828015610e3157602002820191906000526020600020905b815481526020019060010190808311610e1d575b5050505050905060005b8151811015610e935760036000838381518110610e5a57610e5a611ae9565b602002602001015181526020019081526020016000206002015483610e7f9190611943565b925080610e8b81611a64565b915050610e3b565b50600080846080015111610ea8576000610eb7565b6080840151610eb79084611aff565b9050600062015180856040015142610ecf9190611930565b610ed99190611aff565b9050600062015180866060015142610ef19190611930565b610efb9190611aff565b6020870151608090970151969d969c50929a5090985090965092945050505050565b6001600160a01b03841660009081526020819052604081206005015460ff16610f585760405162461bcd60e51b815260040161049290611a9f565b3360009081526020819052604090206005015460ff16610fba5760405162461bcd60e51b815260206004820152601b60248201527f456e646f72736572206d7573742068617665206964656e7469747900000000006044820152606401610492565b336001600160a01b038616036110125760405162461bcd60e51b815260206004820152601760248201527f43616e6e6f7420656e646f72736520796f757273656c660000000000000000006044820152606401610492565b6000841180156110235750600a8411155b61106f5760405162461bcd60e51b815260206004820152601b60248201527f506f696e7473206d757374206265206265747765656e20312d313000000000006044820152606401610492565b60018310158015611081575060058311155b6110cd5760405162461bcd60e51b815260206004820152601a60248201527f526174696e67206d757374206265206265747765656e20312d350000000000006044820152606401610492565b33600090815260026020526040902054849060ff16156110f5576110f2856002611b21565b90505b6001600160a01b03861660009081526020819052604081206001015461111c908390611943565b9050606481111561112b575060645b6001600160a01b03871660009081526020819052604081206001810183905542600382015560040180549161115f83611a64565b9091555050600580546000918261117583611a64565b909155506040805160e0810182523381526001600160a01b038b811660208084019182528385018c8152606085018a8152426080870190815260a087018e8152600160c0890181905260008b815260039687905299909920885181549089166001600160a01b0319918216178255965199810180549a909816999096169890981790955590516002840155519082015590516004820155915192935091600582019061122190826119a4565b5060c091909101516006909101805460ff19169115159190911790556001600160a01b03881660008181526004602090815260408083208054600181018255908452928290209092018490559051888152339184917f06fd329e47b4a40f5cd9f746b1d8f857f39e53b8863331ebb60128ae7f983b59910160405180910390a4604080518481526020810184905233916001600160a01b038b16917fc452735936eaee81257100d0bcd13a1543b45f39c85731ea1b40555a8bc8a42e910160405180910390a3979650505050505050565b6007546001600160a01b0316331461133d5760405162461bcd60e51b815260206004820152600e60248201526d139bdd08185d5d1a1bdc9a5e995960921b6044820152606401610492565b6001600160a01b03821660009081526020819052604090206005015460ff166113a85760405162461bcd60e51b815260206004820152601960248201527f497373756572206d7573742068617665206964656e74697479000000000000006044820152606401610492565b6001600160a01b03821660009081526002602090815260408083208054600160ff19918216811790925592819052922080548493919216908360038111156113f2576113f2611609565b0217905550816001600160a01b03167fc74884c594cadc89a53c6d32e6643490933c45a9599d660928538740c38bbd24826040516114309190611641565b60405180910390a25050565b6114588282600560405180602001604052806000815250610f1d565b505050565b600060208190529081526040902080548190611478906118e0565b80601f01602080910402602001604051908101604052809291908181526020018280546114a4906118e0565b80156114f15780601f106114c6576101008083540402835291602001916114f1565b820191906000526020600020905b8154815290600101906020018083116114d457829003601f168201915b505050600184015460028501546003860154600487015460059097015495969295919450925060ff1686565b80356001600160a01b038116811461153457600080fd5b919050565b60006020828403121561154b57600080fd5b6115548261151d565b9392505050565b6000806040838503121561156e57600080fd5b6115778361151d565b946020939093013593505050565b6000815180845260005b818110156115ab5760208185018101518683018201520161158f565b506000602082860101526020601f19601f83011685010191505092915050565b60c0815260006115de60c0830189611585565b602083019790975250604081019490945260608401929092526080830152151560a090910152919050565b634e487b7160e01b600052602160045260246000fd5b6004811061163d57634e487b7160e01b600052602160045260246000fd5b9052565b6020810161164f828461161f565b92915050565b60006020828403121561166757600080fd5b5035919050565b600060018060a01b03808a16835280891660208401525086604083015285606083015284608083015260e060a08301526116ab60e0830185611585565b905082151560c083015298975050505050505050565b634e487b7160e01b600052604160045260246000fd5b600082601f8301126116e857600080fd5b813567ffffffffffffffff80821115611703576117036116c1565b604051601f8301601f19908116603f0116810190828211818310171561172b5761172b6116c1565b8160405283815286602085880101111561174457600080fd5b836020870160208301376000602085830101528094505050505092915050565b60006020828403121561177657600080fd5b813567ffffffffffffffff81111561178d57600080fd5b611799848285016116d7565b949350505050565b6020808252825182820181905260009190848201906040850190845b818110156117d9578351835292840192918401916001016117bd565b50909695505050505050565b600060018060a01b03808916835280881660208401525085604083015284606083015283608083015260c060a083015261182260c0830184611585565b98975050505050505050565b821515815260408101611554602083018461161f565b6000806000806080858703121561185a57600080fd5b6118638561151d565b93506020850135925060408501359150606085013567ffffffffffffffff81111561188d57600080fd5b611899878288016116d7565b91505092959194509250565b600080604083850312156118b857600080fd5b6118c18361151d565b91506020830135600481106118d557600080fd5b809150509250929050565b600181811c908216806118f457607f821691505b60208210810361191457634e487b7160e01b600052602260045260246000fd5b50919050565b634e487b7160e01b600052601160045260246000fd5b8181038181111561164f5761164f61191a565b8082018082111561164f5761164f61191a565b601f82111561145857600081815260208120601f850160051c8101602086101561197d5750805b601f850160051c820191505b8181101561199c57828155600101611989565b505050505050565b815167ffffffffffffffff8111156119be576119be6116c1565b6119d2816119cc84546118e0565b84611956565b602080601f831160018114611a0757600084156119ef5750858301515b600019600386901b1c1916600185901b17855561199c565b600085815260208120601f198616915b82811015611a3657888601518255948401946001909101908401611a17565b5085821015611a545787850151600019600388901b60f8161c191681555b5050505050600190811b01905550565b600060018201611a7657611a7661191a565b5060010190565b604081526000611a906040830185611585565b90508260208301529392505050565b60208082526017908201527f4964656e7469747920646f6573206e6f74206578697374000000000000000000604082015260600190565b6020815260006115546020830184611585565b634e487b7160e01b600052603260045260246000fd5b600082611b1c57634e487b7160e01b600052601260045260246000fd5b500490565b808202811582820484141761164f5761164f61191a56fea2646970667358221220b24ea99d871f635b464b2be39b1a48afbf27ece25d6a9a05850d693d42e501db64736f6c63430008130033",
  "linkReferences": {},
  "deployedLinkReferences": {}
}